:020000040800F2
:100000006006002031020008F9020008F102000831
:10001000F5020008EB0200088D0400080000000053
:10002000000000000000000000000000FD020008C9
:10003000EF02000800000000FB0200082104000895
:100040004B0200084B0200084B0200084B0200085C
:100050004B0200084B0200084B0200084B0200084C
:100060004B0200084B0200084B0200084B0200083C
:100070004B0200084B0200084B0200084B0200082C
:100080004B0200084B0200084B0200084B0200081C
:100090004B0200084B0200084B0200084B0200080C
:1000A0004B0200084B0200084B0200084B020008FC
:1000B0004B0200084B0200084B0200084B020008EC
:1000C0004B0200084B0200084B0200084B020008DC
:1000D0004B0200084B0200084B0200084B020008CC
:1000E0004B0200084B0200084B0200084B020008BC
:1000F0004B0200084B0200084B0200084B020008AC
:100100004B0200084B0200084B0200084B0200089B
:100110004B0200084B0200084B0200084B0200088B
:100120004B0200084B0200084B0200084B0200087B
:100130004B0200084B0200084B0200084B0200086B
:100140004B0200084B0200084B0200084B0200085B
:100150004B0200084B0200084B0200084B0200084B
:100160004B0200084B0200084B0200084B0200083B
:100170004B0200084B0200084B0200084B0200082B
:100180004B0200084B0200084B0200084B0200081B
:100190004B0200084B0200084B0200084B0200080B
:1001A0004B0200084B0200084B02000800F002F866
:1001B00000F02EF80AA090E8000C82448344AAF1D3
:1001C0000107DA4501D100F023F8AFF2090EBAE8D1
:1001D0000F0013F0010F18BFFB1A43F0010318477B
:1001E000C0020000D00200000023002400250026E9
:1001F000103A28BF78C1FBD8520728BF30C148BF8A
:100200000B6070471FB500F045F91FBD10B510BD5C
:1002100000F031F81146FFF7F5FF00F039F900F072
:100220004FF803B4FFF7F2FF03BC00F057F80000EB
:100230000948804709480047FEE7FEE7FEE7FEE77A
:10024000FEE7FEE7FEE7FEE7FEE7FEE704480549B6
:10025000054A064B7047000025040008AD01000860
:100260006000002060060020600200206002002084
:10027000704770477047754600F02CF8AE46050091
:100280006946534620F00700854618B020B5FFF7B1
:10029000DDFFBDE820404FF000064FF000074FF0B3
:1002A00000084FF0000B21F00701AC46ACE8C00994
:1002B000ACE8C009ACE8C009ACE8C0098D4670479D
:1002C00010B50446AFF300802046BDE81040FFF7AC
:1002D000A8BF000000487047000000200149182016
:1002E000ABBEFEE726000200704700BFFEE7704786
:1002F00000BFFEE700BFFEE7704770477047000091
:100300000CB50020019000904148006840F4803016
:100310003F49086000BF3E48006800F4003000908C
:100320000198401C0190009818B90198B0F5A04FB1
:10033000F1D13748006800F4003010B1012000907E
:1003400001E0002000900098012860D13048403042
:10035000006840F080502E49403108602D48006808
:1003600040F440402B49086029480830006828497B
:10037000083108600846006840F4004008600846FC
:10038000006840F4A05008602348091F0860081F57
:10039000006840F08070091F086000BF1C480068BA
:1003A00000F000700028F9D01A48006840F480304E
:1003B0001849086000BF1748406800F480300028E2
:1003C000F9D01448006840F400301249086000BFBA
:1003D0001048406800F400300028F9D040F2057061
:1003E0000E4908600A480830006820F003000849F8
:1003F000083108600846006840F00200086000BF4D
:1004000003480830006800F00C000828F8D10CBD43
:100410000038024000700040195A4007003C02407A
:100420007047000010B51548006840F4700013498B
:1004300008601348006840F001001149086000207E
:100440000F49083108600E4800680E4908400C4901
:1004500008600D48091D0860081F006820F480200E
:10046000091F0860002006490C310860FFF748FFAB
:100470004FF0006001498039086010BD88ED00E050
:1004800000380240FFFFF6FE1030002400BFFEE7F8
:1004900000BFFEE74FF04070E1EE100A7047000029
:1004A000B00400080000002060060000E801000819
:04000005080001AD41
:00000001FF
